:100000000C9446000C9465000C9465000C946500FB
:100010000C9465000C9465000C9465000C946500CC
:100020000C9465000C9465000C9465000C946500BC
:100030000C9465000C9465000C9465000C946500AC
:100040000C9465000C9465000C9465000C9465009C
:100050000C9465000C9465000C9465000C9465008C
:100060000C9465000C9465000C9465000C9465007C
:100070000C9465000C9465000C9465000C9465006C
:100080000C9465000C9465000C94650011241FBE4F
:10009000CFEFD0E4DEBFCDBF11E0A0E0B1E0E6ECF1
:1000A000F8E000E00BBF02C007900D92A034B1074A
:1000B000D9F721E0A0E4B1E001C01D92AF34B2074E
:1000C000E1F70E94BD030C9461040C940000CF93EF
:1000D000DF93CDB7DEB781E00E948E000000DF9194
:1000E000CF910895CF93DF93CDB7DEB784E690E04C
:1000F0000E94320188E30E948E0086E00E948E00FA
:100100008FE00E948E0081E00E948E008AE090E0E5
:100110000E9432010000DF91CF910895CF93DF93C9
:100120001F92CDB7DEB789838BE290E02BE230E0FF
:10013000F90120812F7BFC01208388E290E0298156
:10014000FC0120838BE290E02BE230E0F90120817A
:100150002068FC01208300008BE290E02BE230E07D
:10016000F90120812F77FC01208382E090E00E943A
:10017000320100000F90DF91CF910895CF93DF936C
:100180001F92CDB7DEB789838BE290E02BE230E09F
:10019000F90120812064FC01208388E290E029811C
:1001A000FC0120838BE290E02BE230E0F90120811A
:1001B0002068FC01208300008BE290E02BE230E01D
:1001C000F90120812F77FC01208381E090E00E94DB
:1001D000320100000F90DF91CF910895CF93DF930C
:1001E00000D000D0CDB7DEB78A837C836B830E94BA
:1001F00067008A81898311C0898191E0980F998372
:100200000E941B018B819C819C012F5F3F4F3C838F
:100210002B83FC0180810E94BE008B819C81FC01AC
:100220008081882349F700000F900F900F900F9066
:10023000DF91CF910895CF93DF931F92CDB7DEB7B3
:1002400089838981813128F4898181580E948E00B7
:1002500004C0898181550E948E0000000F90DF91BB
:10026000CF910895CF93DF9300D000D000D0CDB7C9
:10027000DEB79E838D831A82198213C01C821B8273
:1002800006C000008B819C8101969C838B838B81AF
:100290009C8187309340ACF389819A8101969A833F
:1002A000898329813A818D819E812817390734F30A
:1002B000000026960FB6F894DEBF0FBECDBFDF91CB
:1002C000CF910895CF93DF9300D01F92CDB7DEB7C3
:1002D00089837B836A8389818A3031F48A819B8117
:1002E000BC018DE00E94620180EC90E0FC01808105
:1002F000882F90E080729927892BB1F386EC90E0EB
:100300002981FC01208380E090E00F900F900F90F6
:10031000DF91CF910895CF93DF93CDB7DEB781E81A
:1003200090E02BE0FC01208388E890E02DE730E0AE
:10033000FC01318320838FE690E022E0FC012083E2
:1003400084E890E0FC011182108280910E0190916E
:100350000F01A0911001B091110180934101909380
:100360004201A0934301B09344018FE590E02FE553
:1003700030E0F90120812068FC0120830000DF913A
:10038000CF910895CF93DF93CDB7DEB781E890E0AA
:10039000FC0110820000DF91CF910895CF93DF938D
:1003A000CDB7DEB781E0809340010000DF91CF91AF
:1003B0000895CF93DF9300D0CDB7DEB79A838983BA
:1003C0008091410190914201A0914301B09144017B
:1003D0000197A109B1098093410190934201A09333
:1003E0004301B09344018091410190914201A09159
:1003F0004301B0914401892B8A2B8B2B91F40E94ED
:10040000CE0180910E0190910F01A0911001B09149
:1004100011018093410190934201A0934301B09355
:10042000440100000F900F90DF91CF910895CF937A
:10043000DF9300D000D0CDB7DEB769837A838B839A
:100440009C8389819A81AB81BC8180930E019093BA
:100450000F01A0931001B093110180910E019091B2
:100460000F01A0911001B09111018093410190936F
:100470004201A0934301B093440100000F900F90FC
:100480000F900F90DF91CF910895CF93DF93CDB769
:10049000DEB7809147019091480181309105A9F024
:1004A0008130910540F08230910509F4D6C0039760
:1004B00009F47CC029C181E090E0909348018093C9
:1004C000470187E08093460127C180E290E0FC016C
:1004D0008081882F90E08095909583709927892B53
:1004E00001F180E290E0FC018081882F90E080950E
:1004F000909583709927019721F480914601893066
:1005000081F080E290E0FC018081882F90E080956E
:10051000909583709927029759F48091460188231A
:1005200039F481E090E090934801809347013DC009
:1005300080E290E0FC018081882F90E0809590958A
:1005400083709927039749F481E090E090934801E4
:100550008093470110924601DFC080E290E0FC01E9
:100560008081882F90E080959095837099270197DE
:1005700081F480914601893060F483E090E09093AB
:10058000480180934701809146018F5F8093460127
:100590000CC082E090E090934801809347018091E5
:1005A0004601815080934601B7C0B6C080E290E01A
:1005B000FC018081882F90E0809590958370992729
:1005C000892B81F080E290E0FC018081882F90E00F
:1005D0008095909583709927029759F480914601F0
:1005E000882339F481E090E090934801809347019B
:1005F00093C080E290E0FC018081882F90E080959C
:10060000909583709927039749F481E090E0909347
:10061000480180934701109246017EC080E290E03D
:10062000FC018081882F90E08095909583709927B8
:10063000019739F483E090E090934801809347015B
:100640006BC082E090E090934801809347018091D5
:1006500046018150809346015FC080E290E0FC013A
:100660008081882F90E08095909583709927892BC1
:1006700081F080E290E0FC018081882F90E08095FD
:10068000909583709927019759F48091460189309C
:1006900039F481E090E090934801809347013CC099
:1006A00080E290E0FC018081882F90E08095909519
:1006B00083709927039749F481E090E09093480173
:1006C000809347011092460127C080E290E0FC0130
:1006D0008081882F90E0809590958370992702976C
:1006E00039F482E090E0909348018093470114C070
:1006F00083E090E090934801809347018091460108
:100700008F5F8093460108C0109248011092470104
:1007100082E191E00E94310480914701909148016B
:100720008130910519F18130910510F182309105E8
:1007300081F0039709F01DC080914501882F90E05A
:1007400001962AE030E0B9010E9409048093450136
:1007500010C080914501882F90E001962AE030E09A
:10076000B9010E9409048093450103C0000001C043
:1007700000000000DF91CF910895CF93DF9300D068
:10078000CDB7DEB781E290E0FC01108282E290E01A
:100790002FEFFC01208387E290E02FEFFC01208304
:1007A00088E290E0FC0110828AE290E02FEFFC01E9
:1007B00020838BE290E0FC0110820E94720083E3B0
:1007C00091E09A83898389819A81BC0181E00E94AA
:1007D000EE0064E670E080E090E00E9417020E9464
:1007E0008B0110924501109248011092470182E25C
:1007F00090E020E230E0F9012081FC0120830E949A
:1008000045020000809140018823E1F310924001ED
:10081000F6CF97FB072E16F4009407D077FD09D08A
:100820000E941D0407FC05D03EF4909581959F4FD2
:100830000895709561957F4F0895AA1BBB1B51E1E8
:1008400007C0AA1FBB1FA617B70710F0A61BB70B40
:10085000881F991F5A95A9F780959095BC01CD01E5
:1008600008950F931F93CF93DF93E0914B01F09185
:100870004C01238121FF1BC08C01D0E0C0E0F801B6
:1008800081918F0160914B0170914C01DB011896B1
:10089000ED91FC911997882331F00995892B79F313
:1008A000DFEFCFEFECCF8AE00995892B19F08FEFBE
:1008B0009FEF02C08D2F9C2FDF91CF911F910F9141
:0608C0000895F894FFCF3B
:1008C60000000002000000006201000000000100BC
:1008D6000000736F6D657468696E672077726F6E5E
:1008E6006720696E20666972737420737769746312
:1008F60068200048656C6C6F20576F726C6400004E
:00000001FF
