:100000000C9446000C9465000C9465000C946500FB
:100010000C9465000C9465000C9465000C946500CC
:100020000C9465000C9465000C9465000C946500BC
:100030000C9465000C94D9010C9465000C94650037
:100040000C9465000C9465000C9465000C9465009C
:100050000C9465000C9465000C9465000C9465008C
:100060000C9465000C9465000C9465000C9465007C
:100070000C9465000C9465000C9465000C9465006C
:100080000C9465000C9465000C94650011241FBE4F
:10009000CFEFD0E4DEBFCDBF11E0A0E0B1E0E2EDF4
:1000A000F8E000E00BBF02C007900D92A633B10745
:1000B000D9F721E0A6E3B1E001C01D92A434B20754
:1000C000E1F70E94DE030C9467040C940000CF93C8
:1000D000DF93CDB7DEB781E00E948E000000DF9194
:1000E000CF910895CF93DF93CDB7DEB784E690E04C
:1000F0000E94320188E30E948E0086E00E948E00FA
:100100008FE00E948E0081E00E948E008AE090E0E5
:100110000E9432010000DF91CF910895CF93DF93C9
:100120001F92CDB7DEB789838BE290E02BE230E0FF
:10013000F90120812F7BFC01208388E290E0298156
:10014000FC0120838BE290E02BE230E0F90120817A
:100150002068FC01208300008BE290E02BE230E07D
:10016000F90120812F77FC01208382E090E00E943A
:10017000320100000F90DF91CF910895CF93DF936C
:100180001F92CDB7DEB789838BE290E02BE230E09F
:10019000F90120812064FC01208388E290E029811C
:1001A000FC0120838BE290E02BE230E0F90120811A
:1001B0002068FC01208300008BE290E02BE230E01D
:1001C000F90120812F77FC01208381E090E00E94DB
:1001D000320100000F90DF91CF910895CF93DF930C
:1001E00000D000D0CDB7DEB78A837C836B830E94BA
:1001F00067008A81898311C0898191E0980F998372
:100200000E941B018B819C819C012F5F3F4F3C838F
:100210002B83FC0180810E94BE008B819C81FC01AC
:100220008081882349F700000F900F900F900F9066
:10023000DF91CF910895CF93DF931F92CDB7DEB7B3
:1002400089838981813128F4898181580E948E00B7
:1002500004C0898181550E948E0000000F90DF91BB
:10026000CF910895CF93DF9300D000D000D0CDB7C9
:10027000DEB79E838D831A82198213C01C821B8273
:1002800006C000008B819C8101969C838B838B81AF
:100290009C8187309340ACF389819A8101969A833F
:1002A000898329813A818D819E812817390734F30A
:1002B000000026960FB6F894DEBF0FBECDBFDF91CB
:1002C000CF910895CF93DF9300D01F92CDB7DEB7C3
:1002D00089837B836A8389818A3031F48A819B8117
:1002E000BC018DE00E94620180EC90E0FC01808105
:1002F000882F90E080729927892BB1F386EC90E0EB
:100300002981FC01208380E090E00F900F900F90F6
:10031000DF91CF910895CF93DF93CDB7DEB781E81A
:1003200090E02BE0FC01208388E890E02DE730E0AE
:10033000FC01318320838FE690E022E0FC012083E2
:1003400084E890E0FC011182108280910E0190916E
:100350000F01A0911001B09111018093370190938A
:100360003801A0933901B0933A018FE590E02FE571
:1003700030E0F90120812068FC0120830000DF913A
:10038000CF910895CF93DF93CDB7DEB781E890E0AA
:10039000FC0110820000DF91CF910895CF93DF938D
:1003A000CDB7DEB781E0809336010000DF91CF91B9
:1003B00008951F920F9200905F000F9211240090F9
:1003C0005B000F922F933F934F935F936F937F93B5
:1003D0008F939F93AF93BF93EF93FF93CF93DF934D
:1003E000CDB7DEB78091370190913801A0913901E6
:1003F000B0913A010197A109B10980933701909317
:100400003801A0933901B0933A018091370190915E
:100410003801A0913901B0913A01892B8A2B8B2B9D
:1004200091F40E94CE0180910E0190910F01A09154
:100430001001B09111018093370190933801A0937E
:100440003901B0933A010000DF91CF91FF91EF9114
:10045000BF91AF919F918F917F916F915F914F91DC
:100460003F912F910F9000925B000F9000925F00E0
:100470000F901F901895CF93DF9300D000D0CDB789
:10048000DEB769837A838B839C8389819A81AB8170
:10049000BC8180930E0190930F01A0931001B09343
:1004A000110180910E0190910F01A0911001B09166
:1004B00011018093370190933801A0933901B093D3
:1004C0003A0100000F900F900F900F90DF91CF91A5
:1004D0000895CF93DF93CDB7DEB780913C01909123
:1004E0003D0181309105A9F08130910540F08230C5
:1004F000910509F4D5C0039709F472C02FC181E0BA
:1005000090E090933D0180933C0187E0809312013D
:1005100031C180E290E0FC018081882F90E08370FF
:100520009927892BE1F080E290E0FC018081882FFF
:1005300090E083709927019721F48091120189300E
:1005400071F080E290E0FC018081882F90E0837060
:100550009927029759F480911201882339F481E098
:1005600090E090933D0180933C0139C080E290E09F
:10057000FC018081882F90E083709927039749F4CC
:1005800081E090E090933D0180933C011092120134
:10059000F1C080E290E0FC018081882F90E08370C0
:1005A0009927019781F480911201893060F483E0EA
:1005B00090E090933D0180933C01809112018F5F08
:1005C000809312010CC082E090E090933D018093F3
:1005D0003C0180911201815080931201CBC0CAC0AE
:1005E00080E290E0FC018081882F90E08370992761
:1005F000892B71F080E290E0FC018081882F90E0EF
:1006000083709927029759F480911201882339F455
:1006100081E090E090933D0180933C01A8C080E28E
:1006200090E0FC018081882F90E0837099270397E8
:1006300049F481E090E090933D0180933C01109259
:10064000120195C080E290E0FC018081882F90E04B
:10065000837099270197C1F483E090E090933D0166
:1006600080933C0180913B018A3009F080C08091E9
:100670001201893008F07BC0809112018F5F809356
:10068000120110923B0173C082E090E090933D0113
:1006900080933C018091120181508093120167C0C8
:1006A00080E290E0FC018081882F90E083709927A0
:1006B000892B71F080E290E0FC018081882F90E02E
:1006C00083709927019759F480911201893039F488
:1006D00081E090E090933D0180933C014AC080E22C
:1006E00090E0FC018081882F90E083709927039728
:1006F00049F481E090E090933D0180933C01109299
:10070000120137C080E290E0FC018081882F90E0E8
:10071000837099270297B1F482E090E090933D01B5
:1007200080933C0180913B018A3019F58091120140
:100730008823F9F080911201815080931201109268
:100740003B0117C083E090E090933D0180933C0112
:10075000809112018F5F809312010BC010923D01B6
:1007600010923C0183E191E00E94370403C0000035
:1007700001C0000080913C0190913D0181309105C4
:10078000A9F081309105A8F08230910549F00397D6
:1007900009F010C080913B018F5F80933B010AC03C
:1007A00080913B018F5F80933B0104C010923B011D
:1007B00001C000000000DF91CF910895CF93DF9337
:1007C00000D0CDB7DEB781E290E0FC01108282E27A
:1007D00090E02FEFFC01208387E290E02FEFFC01F7
:1007E000208388E290E0FC0110828AE290E02FEF03
:1007F000FC0120838BE290E0FC01108287E0809373
:10080000120184E391E09A83898364E670E080E0DA
:1008100090E00E943B020E948B010E9472000E94A5
:10082000670010923B0110923D0110923C0182E260
:1008300090E020E230E0F9012081FC0120838091EA
:10084000120120E3280F89819A81FC01208389818C
:100850009A81BC0181E00E94EE000E9469020000C2
:10086000809136018823E1F310923601E8CF0F938F
:100870001F93CF93DF93E0914001F09141012381D9
:1008800021FF1BC08C01D0E0C0E0F80181918F01F5
:100890006091400170914101DB011896ED91FC914E
:1008A0001997882331F00995892B79F3DFEFCFEF82
:1008B000ECCF8AE00995892B19F08FEF9FEF02C0EA
:1008C0008D2F9C2FDF91CF911F910F910895F89458
:0208D000FFCF58
:1008D20000000002000000006201000000000100B0
:1008E200000007736F6D657468696E672077726FB9
:1008F2006E6720696E2066697273742073776974FB
:06090200636820003700CD
:00000001FF
